:100000000C9467010C948F010C948F010C948F0158
:100010000C948F010C948F010C948F010C948F0120
:100020000C948F010C948F010C948F010C948F0110
:100030000C948F010C948F010C948F010C948F0100
:100040000C94DB210C948F010C94A9210C94832136
:100050000C948F010C948F010C948F010C948F01E0
:100060000C9425220C948F0100407A10F35A00A0C2
:10007000724E18090010A5D4E80000E87648170071
:1000800000E40B54020000CA9A3B000000E1F505B1
:10009000000080969800000040420F000000A086FB
:1000A00001000000102700000000E803000000002D
:1000B0006400000000000A000000000001000000D1
:1000C00000002C76D888DC674F0823DFC1DFAE59EB
:1000D000E1B1B796E5E3E453C63AE651997696E87E
:1000E000E6C28426EB898C9B62ED407C6FFCEFBC02
:1000F0009C9F40F2BAA56FA5F490055A2AF75C932D
:100100006B6CF9676DC11BFCE0E40D47FEF520E662
:10011000B500D0ED902E0300943577050080841E45
:10012000080000204E0A000000C80C333333330FA0
:10013000986E12831141EF8D2114893BE65516CF3D
:10014000FEE6DB18D1844B381BF77C1D901DA4BB49
:10015000E424203284725E228100C9F124ECA1E5FE
:100160003D27626C6E6B696E66006D637500302EA4
:10017000302E300066772D7479706500544D504CE8
:10018000334E7852674378716A006275696C640017
:100190004F637420323220323032352031383A33D6
:1001A000333A303800626C796E6B00312E332E3268
:1001B00000682D6265617400343500627566662DD5
:1001C000696E003235360064657600417264756987
:1001D0006E6F20556E6F006370750041546D6567DA
:1001E000613332385000636F6E0057353130300064
:1001F000000000000000250028002B000000000087
:10020000240027002A000000000023002600290007
:1002100004040404040404040202020202020303AC
:1002200003030303010204081020408001020408B4
:100230001020010204081020000000080002010044
:10024000000304070000000000000000920192017A
:100250009201920192019201920192019201920106
:1002600092019201920192019201920192019201F6
:1002700092019201920192019201920192019201E6
:10028000920192019201920192019201C00A9101A0
:10029000E60A9101900A600A910191019101910190
:1002A00091019101910191019101910191019101BE
:1002B00091019101910191019101910191019101AE
:1002C000910191019101910191019101D323112497
:1002D0001FBECFEFD8E0DEBFCDBF12E0A0E0B1E09F
:1002E000ECE9F9E602C005900D92A236B107D9F704
:1002F00025E0A2E6B2E001C01D92A63AB207E1F7FE
:1003000011E0C7E6D1E004C02197FE010E948A34C3
:10031000C636D107C9F70E94C8240C94CC340C947B
:100320000000089508958CBD9DBD089520E3FC0153
:1003300020833296862F82958F706F706A3030F4EA
:10034000605D6293682F8111F5CF0895695CF9CFE4
:10035000FC01818D928D089508950895AF92BF920A
:10036000CF92DF92EF92FF920F931F93CF93DF9381
:100370006C017B018B01040F151FEB015E01AE18B0
:10038000BF08C017D10759F06991D601ED91FC91D2
:100390000190F081E02DC6010995892B79F7C501FF
:1003A000DF91CF911F910F91FF90EF90DF90CF9051
:1003B000BF90AF900895FC01538D448D252F30E000
:1003C000842F90E0821B930B541710F0CF96089562
:1003D00001970895FC01918D828D981761F0A28D8F
:1003E000AE0FBF2FB11D5D968C91928D9F5F9F7355
:1003F000928F90E008958FEF9FEF0895FC01918D0B
:10040000828D981731F0828DE80FF11D858D90E077
:1004100008958FEF9FEF0895FC01918D228D892F14
:1004200090E0805C9F4F821B91098F7399270895FC
:100430008AEB93E00E940C0221E0892B09F420E072
:10044000822F089580E090E0892B29F00E94180205
:1004500081110C9400000895FC01A48DA80FB92F00
:10046000B11DA35ABF4F2C91848D90E001968F73DC
:100470009927848FA689B7892C93A089B1898C91FB
:10048000837080648C93938D848D981306C002884A
:10049000F389E02D80818F7D80830895EF92FF9214
:1004A0000F931F93CF93DF93EC0181E0888F9B8D97
:1004B0008C8D98131AC0E889F989808185FF15C051
:1004C0009FB7F894EE89FF896083E889F989808174
:1004D0008370806480839FBF81E090E0DF91CF9143
:1004E0001F910F91FF90EF900895F62E0B8D10E065
:1004F0000F5F1F4F0F731127E02E8C8D8E110CC0D4
:100500000FB607FCFACFE889F989808185FFF5CF1E
:10051000CE010E942C02F1CFEB8DEC0FFD2FF11DCF
:10052000E35AFF4FF0829FB7F8940B8FEA89FB895B
:1005300080818062CFCF682F8AEB93E00C944E02CB
:10054000CF93DF93EC01888D8823B9F0AA89BB890A
:10055000E889F9898C9185FD03C0808186FD0DC0F5
:100560000FB607FCF7CF8C9185FFF2CF808185FF16
:10057000EDCFCE010E942C02E9CFDF91CF910895FB
:10058000833081F028F4813099F08230A9F0089509
:100590008730A9F08830C9F08430B1F480918000B0
:1005A0008F7D03C0809180008F77809380000895B5
:1005B00084B58F7784BD089584B58F7DFBCF8091FE
:1005C000B0008F778093B00008958091B0008F7D48
:1005D000F9CF1F93CF93DF93282F30E0F901E85C28
:1005E000FD4F8491F901EC5DFD4FD491F901E05F7D
:1005F000FD4FC491CC23A9F0162F81110E94C00297
:10060000EC2FF0E0EE0FFF1FEE50FE4FA591B491DE
:100610008FB7F894EC91111108C0D095DE23DC93CC
:100620008FBFDF91CF911F910895DE2BF8CFCF932D
:10063000DF9390E0FC01EC5DFD4F2491805F9D4FC6
:10064000FC0184918823C9F090E0880F991FFC0178
:10065000E450FE4FA591B491FC01EE50FE4FC591C0
:10066000D49161110DC09FB7F8948C91209582238D
:100670008C938881282328839FBFDF91CF91089591
:10068000623051F49FB7F8943C91822F8095832378
:100690008C93E8812E2BEFCF8FB7F894EC912E2B13
:1006A0002C938FBFEACF1F93CF93DF93182FEB01CB
:1006B00061E00E941703209739F460E0812FDF91F9
:1006C000CF911F910C94E902CF3FD10511F461E065
:1006D000F5CFE12FF0E0E85CFD4FE491E33031F13C
:1006E00040F4E130B1F0E230E1F0C038D1057CF700
:1006F000E4CFE73029F1E83059F1E430B1F78091E7
:100700008000806280938000D0938B00C0938A0029
:1007100004C084B5806884BDC7BDDF91CF911F91AF
:10072000089584B5806284BDC8BDF7CF80918000F4
:10073000806880938000D0938900C0938800EDCFBB
:100740008091B00080688093B000C093B300E5CF83
:100750008091B00080628093B000C093B400DDCF80
:100760008E3008F08E508770806480937C0080917A
:100770007A00806480937A0080917A0086FDFCCFB5
:10078000809178009091790008953FB7F894809116
:100790001E0390911F03A0912003B091210326B561
:1007A000A89B05C02F3F19F00196A11DB11D3FBFA9
:1007B000BA2FA92F982F8827BC01CD01620F711D78
:1007C000811D911D42E0660F771F881F991F4A9572
:1007D000D1F708958F929F92AF92BF92CF92DF92FE
:1007E000EF92FF926B017C010E94C5034B015C01FB
:1007F000C114D104E104F104B9F00E94C5036819E1
:1008000079098A099B09683E73408105910580F347
:1008100021E0C21AD108E108F10888EE880E83E0D1
:10082000981EA11CB11CE4CFFF90EF90DF90CF90F9
:10083000BF90AF909F908F9008952FB7F8946091DC
:100840001A0370911B0380911C0390911D032FBF0D
:1008500008950F931F93CF93DF938C0180914905E7
:1008600090914A0597FF21C00E941D04E9E9F4E038
:1008700050E040E026E1249FD001259FB00D1124D7
:10088000A756BB4FED01322F19923A95E9F76083D5
:100890007183828393834F5F5F4F76964830510513
:1008A00051F710924A05109249058091490590919F
:1008B0004A0508978CF4E9E9F4E0D0E0C0E08481CF
:1008C0009581892B61F486819781892B41F4F80108
:1008D00080819181009749F4CFEFDFEF2EC0219600
:1008E0007696C830D10559F7F7CF26E12C9F8001C5
:1008F0002D9F100D112407561B4F44E650E060E079
:1009000070E0F801438754876587768795838483F1
:100910001286108A178681E0838B0E941D04F801DD
:1009200060837183828393838091490590914A0506
:10093000019690934A0580934905CE01DF91CF91AE
:100940001F910F9108954F925F926F927F92AF9295
:10095000BF92CF92DF92EF92FF920F931F93CF93AC
:10096000DF93EC016B017B01E40EF51E8B01580156
:10097000AC18BD080E151F0511F10E941D046887F3
:1009800079878A879B87E881F9810284F385E02D46
:10099000CE01099597FF23C00E941D044884598405
:1009A0006A847B8464197509860997094C805D8087
:1009B0006E807F80641575058605970520F3C50157
:1009C000DF91CF911F910F91FF90EF90DF90CF902B
:1009D000BF90AF907F906F905F904F900895F80117
:1009E00081938F01C4CFFC0120812EBD9B0121503A
:1009F000310941F051810DB407FEFDCF4EB55EBD0A
:100A00004193F5CF61507109860F971F0DB407FE12
:100A1000FDCF2EB5FC0120830895E0912303F091D2
:100A20002403808190912203892B80830895E09193
:100A30002303F091240390818091220380958923E0
:100A4000808308958EBD00000DB407FEFDCF8EB5E6
:100A50000895AF92BF92CF92DF92EF92FF920F93E1
:100A60001F93CF93DF93CDB7DEB728970FB6F894D7
:100A7000DEBF0FBECDBF8C017B016A018091B9033F
:100A80008333E1F45801A40EB51EA016B10609F493
:100A90006FC00E94170580EF0E942205812F0E94DF
:100AA0002205802F0E9422050F5F1F4FF7018191C1
:100AB0007F010E9422050E940D05E7CF5B01A40E75
:100AC000B51E8433C1F40E94170519830A838D2D46
:100AD00080688B83CC8264E070E0CE0101960E9436
:100AE000F304AE14BF0409F441C0F70181917F0102
:100AF0000E942205F6CF0E9417050F3F110509F04D
:100B000028F419820A8384E08B830CC017FD17C078
:100B100019820A8333E0169507953A95E1F7007E2E
:100B20000C600B8386E0C816D104A0F5F701DE0146
:100B30001496EA15FB0599F081918D93FACFC801BF
:100B400026E0969587952A95E1F7807E19830A839A
:100B50000115104C10F48461D7CF8C61D5CFB6014C
:100B60006D5F7F4FCE0101960E94F3040E940D0538
:100B7000C60128960FB6F894DEBF0FBECDBFDF9139
:100B8000CF911F910F91FF90EF90DF90CF90BF908A
:100B9000AF90089563E070E0CE0101960E94F304E7
:100BA000F70181917F010E942205AE14BF04C1F7B5
:100BB000DDCFCF93DF931F92CDB7DEB7898341E0BE
:100BC00050E0BE016F5F7F4F90E080E00E942905FA
:100BD0000F90DF91CF91089590E02091B9032333D6
:100BE00039F40C96982F990F990F990F80E008957A
:100BF0004896F8CFDA01E0912603F0E0FE2FEE27C9
:100C0000E60FF71F90E0982F8827A901BD018E0FEE
:100C10009F1F0C942905CF93DF9300D0CDB7DEB78B
:100C200079836A8322E030E0AE014F5F5F4F60E17D
:100C300070E00E94FA050F900F90DF91CF91089518
:100C4000CF93DF9300D0CDB7DEB779836A8322E0FC
:100C500030E0AE014F5F5F4F64E070E00E94FA0544
:100C60000F900F90DF91CF910895CF93DF931F9254
:100C7000CDB7DEB72091260330E0322F2227260F92
:100C8000371F90E0982F8827498341E050E0BE014C
:100C90006F5F7F4F820F931F0E9429050F90DF9196
:100CA000CF910895CF93DF931F92CDB7DEB76983BD
:100CB000DC01ED91FC910280F381E02D41E050E0F8
:100CC000BE016F5F7F4F09950F90DF91CF9108951F
:100CD000FC019485FB018485981303C081E0943066
:100CE00008F080E00895CF93DF931F92CDB7DEB771
:100CF0006983DC01ED91FC910280F381E02D41E0FC
:100D000050E0BE016F5F7F4F09950F90DF91CF914B
:100D100008950895FF920F931F93CF93DF93EB01F4
:100D2000FC01178A168A2A81211109C02B81211101
:100D300006C02C81211103C02D81222301F1411510
:100D40005105E9F08A01FC01F08C80E591E00E94F8
:100D50009301AE014E5F5F4F24E030E06CE070E045
:100D60008F2D0E94FA05B8018F2D0E940B0681E09D
:100D700090E0DF91CF911F910F91FF90089580E057
:100D8000F7CFFC01848595850895FC0184899589B8
:100D900008952AEA31E0FC0131832083FB01408978
:100DA000518962897389FC0142835383648375830B
:100DB0000895DC01ED91FC91048CF58DE02D0994F2
:100DC0002091CF02260F3327331F21323105ECF457
:100DD0002091F302FC0190E080E0243069F082E091
:100DE0000895A091CF022191AC0141555D4FA40F10
:100DF000B52FB11D2C930196861798F38091CF02E1
:100E0000680F6093CF0280E0089581E0089510920A
:100E1000F30281E08093F5021092F40261E082E136
:100E20000E94E90261E083E10E94E902E9EBF0E05F
:100E300080818E7F808380818D7F808388E4809312
:100E4000B80085E48093BC000895CF93DF9391E0D0
:100E50009093AE028823B9F0C091B800D091BA0047
:100E60008091BC008A7B8093BC0060E082E10E949C
:100E7000E90260E083E10E94E9020E940707D09343
:100E8000BA00C093B800DF91CF910895E091970325
:100E900080919603E81730F4F0E0E757FD4F80812A
:100EA00090E008958FEF9FEF0895909197038091C0
:100EB00096032FEF3FEF981748F4E92FF0E0E7573C
:100EC000FD4F208130E09F5F90939703C901089503
:100ED0008091960390919703891B990B0895CF9267
:100EE000DF92EF92FF920F931F93CF93DF937C01DA
:100EF000CB018A0120918802222389F0EB016B014A
:100F0000C40ED51ECC15DD0569F06991D701ED91B0
:100F1000FC910190F081E02DC7010995F3CF642F7A
:100F20000E94E006C801DF91CF911F910F91FF90C1
:100F3000EF90DF90CF900895CF93DF931F92CDB7BE
:100F4000DEB76983209188022223F9F0209194036F
:100F5000203258F021E030E0FC013383228390E01E
:100F600080E00F90DF91CF91089580919503E82F55
:100F7000F0E0E859FD4F998190838F5F809395034E
:100F80008093940381E090E0ECCF61E0CE01019684
:100F90000E94E006F7CFCF92DF92EF92FF920F937D
:100FA0001F93CF93DF93FC01C48121E0209388023B
:100FB000C093670210929503109294038385682B67
:100FC0008DE894E00E949C07D0919403D13208F000
:100FD00092C00E94C5036B017C018091F3028111D4
:100FE00065C082E08093F30281E08093F5028FEF89
:100FF0008093F20210921703D0931603A8E6B2E092
:10100000E6EFF2E080E0D81385C0109218038091DB
:101010001803CC0FC82BC09318038091F4028130C1
:1010200009F07CC01092F4020E94C5036B017C01A0
:10103000809118038093BB008091AA029091AB022B
:10104000A091AC02B091AD02892B8A2B8B2B99F029
:101050000E94C5030091AA021091AB022091AC023C
:101060003091AD026C197D098E099F09061717078B
:1010700028073907E0F18091BC0083FDD9CF85ECCA
:101080008093BC000E94C5036B017C018091F30238
:10109000823009F445C08091F2028F3F61F1809166
:1010A000F202803241F18091F20225C08091AA02C1
:1010B0009091AB02A091AC02B091AD02892B8A2B2A
:1010C0008B2B09F48ACF0E94C5030091AA021091CC
:1010D000AB022091AC023091AD026C197D098E09F2
:1010E0009F09061717072807390708F076CF809160
:1010F000A9020E9425071092950310929403109262
:101100008802DF91CF911F910F91FF90EF90DF90B8
:10111000CF9008959D9191938F5F75CF85EEB0CF5D
:101120008091AA029091AB02A091AC02B091AD0265
:10113000892B8A2B8B2B09F4A9CF0E94C503009120
:10114000AA021091AB022091AC023091AD026C1951
:101150007D098E099F09061717072807390708F028
:1011600095CFC5CF089590E080E008958EE00E946D
:10117000B003BC01990F880B990B0E94393120E014
:1011800030E040EA50E40E94983120E030E040E84E
:101190005AE30E9498312AE037ED43E25CE30E9473
:1011A0005D330895EF92FF920F931F93CF93DF93D8
:1011B00000D000D000D0CDB7DEB7DC01AB0118966F
:1011C0006D917C9119978D919C911197FC012081D3
:1011D000318161157105B9F0D9015096ED91FC91FD
:1011E000099521E0019709F020E0822F26960FB69D
:1011F000F894DEBF0FBECDBFDF91CF911F910F914D
:10120000FF90EF900895F901E684F7842AEA31E02F
:101210003A83298314960D911D912D913C91179736
:101220000B831C832D833E83BE016F5F7F4FF701CD
:10123000D7CFFC019485992369F080819181DC01ED
:10124000ED91FC910688F789E02D099591E08111D7
:1012500001C090E0892F0895DC011C961C921C9718
:101260008D919C91009739F0DC01ED91FC910488FF
:10127000F589E02D09940895FC0176876587089526
:10128000DC01ED91FC9102A0F3A1E02D099591E024
:1012900089270895862F089581E08627089521E003
:1012A000FC018485843008F020E0822F08950895A1
:1012B000FB0101900020E9F73197AF01461B570B66
:1012C000DC01ED91FC910280F381E02D09948F9275
:1012D0009F92AF92BF92EF92FF920F931F93CF9383
:1012E000DF93CDB7DEB7A1970FB6F894DEBF0FBE80
:1012F000CDBF7C01FA01CB0119A2223008F42AE00B
:101300008E010F5D1F4F822E912CB12CA12CBF019D
:10131000A50194010E94BF32F901CA016A300CF59F
:10132000605DD8016E938D01232B242B252B79F73B
:1013300090E080E0109721F0BD01C7010E9458099C
:10134000A1960FB6F894DEBF0FBECDBFDF91CF914F
:101350001F910F91FF90EF90BF90AF909F908F9053
:101360000895695CDECF8F929F92AF92BF92CF9229
:10137000DF92EF92FF920F931F93CF93DF937C0145
:10138000EB016C0182E0C80ED11C4701E5E08E0E36
:10139000911C10E000E0F60141916F0150E070E017
:1013A00060E02AE0CE010E9467095C01E881F981D2
:1013B0000190F081E02D6EE2CE0109958A0D9B1D12
:1013C000080F191FC814D90431F7F701458150E0FF
:1013D00070E060E02AE0CE010E946709800F911F53
:1013E000DF91CF911F910F91FF90EF90DF90CF9001
:1013F000BF90AF909F908F9008950F931F93CF93BE
:101400008C01C62F0E94CB076C2F6460C8010E941C
:10141000CB076C2F6B7FC8010E94CB0783EC90E059
:101420000197F1F7CF911F910F9108950F931F939B
:10143000CF93DF938C01D62FC42F607F642B0E9443
:10144000FD0980E1D89FB00111246C2BC801DF9108
:10145000CF911F910F910C94FD09CF93DF93CDB7DE
:10146000DEB728970FB6F894DEBF0FBECDBF98E069
:10147000ECE0F1E0DE01119601900D929A95E1F712
:1014800090915305961708F46FEF262F30E0220F46
:10149000331F41E050E04C0F5D1F240F351FF90151
:1014A0006081680F606840E08BE495E028960FB695
:1014B000F894DEBF0FBECDBFDF91CF910C94160A1A
:1014C000CF93DF93FB01808191810E945B2EEC0121
:1014D00081E0209709F480E08093640281E090E04D
:1014E0002097A1F00E949B0281E090E00E949B0265
:1014F00061E08BE0CD2B79F00E942D0A6CEA71E05F
:101500008BE495E0DF91CF910C9458090E949B02E7
:1015100090E080E0EBCF0E942D0A62EB71E0F0CF0B
:10152000CF93DF93FB01808191810E945B2EEC01C0
:1015300081E0209709F480E08093630290E080E0EE
:101540002097A1F00E949B0281E090E00E949B0204
:1015500061E086E0CD2B79F00E942D0A68EB71E006
:101560008BE495E0DF91CF910C9458090E949B0287
:1015700090E080E0EBCF0E942D0A6EEB71E0F0CF9F
:10158000FB01808191810E945B2E21E0009709F48C
:1015900020E020939803892B71F061E084E00E94A1
:1015A000E90260E08AE00E942D0A64EC71E08BE4BD
:1015B00095E00C94580960E084E00E94E90260E044
:1015C0008AE00E942D0A6BEC71E0F1CFFB01808173
:1015D00091810E945B2E21E0009709F420E0209386
:1015E0006202892B71F061E085E00E94E90260E00F
:1015F00083E00E942D0A62ED71E08BE495E00C948B
:10160000580960E085E00E94E90260E083E00E9402
:101610002D0A69ED71E0F1CF41E00E94160A81E0E8
:1016200090E00895AF92BF92CF92DF92EF92FF9237
:101630000F931F93CF93DF9300D000D0CDB7DEB7C9
:101640008C016B017A018091B9038333E9F45B016A
:101650006801C40ED51EC016D106A9F10E94170557
:101660008FE00E942205812F0E942205802F0E9478
:1016700022050F5F1F4F80E00E942205F501819334
:101680005F010E940D05E7CF843369F50E941705BD
:1016900019830A838F2D8F778B83EC8264E070E04F
:1016A000CE0101960E94F304A70170E060E0C6013C
:1016B0000E94A634E114F10421F0B701C6010E9492
:1016C000F3040E940D05C7010F900F900F900F902B
:1016D000DF91CF911F910F91FF90EF90DF90CF900E
:1016E000BF90AF9008950E9417050F3F110509F0B4
:1016F00030F419820A831B8263E070E0D1CF17FDBA
:101700000BC019820A8333E0169507953A95E1F7E5
:10171000007E08600B83F0CFC80126E09695879580
:101720002A95E1F7807E19830A830115104C18F47D
:1017300080618B83E1CF8861FCCFCF93DF931F92D1
:10174000CDB7DEB72091260330E0322F2227260FB7
:10175000371F90E0982F882741E050E0BE016F5F6F
:101760007F4F820F931F0E94120B89810F90DF9190
:10177000CF910895CF93C82F462F61E070E00E946B
:10178000350661E070E08C2F0E949D0B8111F9CF2E
:10179000CF910895CF93C82F80E591E00E949301E7
:1017A00068E070E08C2FCF910C94BA0BCF93C82FC8
:1017B00080E591E00E94930160E170E08C2FCF9171
:1017C0000C94BA0BCF93DF93EC01888D843020F416
:1017D0000E94D60B84E0888FDF91CF910895CF933C
:1017E000C82F80E591E00E94930163E070E08C2FA8
:1017F000CF910C949D0BCF93DF93EC018C858430BB
:10180000D0F40E94EF0B843189F0882379F088317D
:1018100069F021E08C3159F4E881F9810084F18587
:10182000E02DCE01099521E0892B09F420E0822FDB
:10183000DF91CF91089580E0FBCFCF92DF92EF92BE
:10184000FF92CF93DF93EC018C85843068F40E9483
:10185000CA0B0E941D046B017C018C850E94EF0B5A
:10186000811109C084E08C87DF91CF91FF90EF90C8
:10187000DF90CF90089561E070E080E090E00E94FA
:10188000EA030E941D04AB01BC014C195D096E09FD
:101890007F098D859E85B0E0A0E0481759076A074B
:1018A0007B07D8F28C850E94D60BDCCFCF93FC014E
:1018B000C08D80E591E00E94930160E270E08C2F82
:1018C0000E94BA0B62E070E08C2F0E949D0B84FD99
:1018D00016C062E070E08C2F0E949D0B83FF0AC04F
:1018E00048E162E070E08C2F0E94350680E090E0D5
:1018F000CF91089580E591E00E949301E3CF40E10C
:1019000062E070E08C2F0E94350681E0F0CFCF932B
:10191000DF931F92CDB7DEB741E050E0BE016F5FAD
:101920007F4F90E080E00E94120B89810F90DF9141
:10193000CF910895CF93DF93C4E1D0E00E94870C4C
:10194000882361F061E070E080E090E00E94EA03AB
:101950002197A1F780E0DF91CF91089581E0FBCF3F
:101960001F93CF93DF931F92CDB7DEB7182F80E57B
:1019700091E00E949301812F0E94EC0527E0129FC5
:10198000F0011124E356FC4F22813381377041E08E
:1019900050E0BE016F5F7F4F820F931F0E94120BBA
:1019A00089810F90DF91CF911F910895FC01808D67
:1019B000843040F4218D328D232B21F00E94B00C15
:1019C00090E008958FEF9FEF0895CF93DF93FC0190
:1019D0002485243028F08FEF9FEFDF91CF91089579
:1019E000EC010190F081E02D0084F185E02D099556
:1019F000892B89F38C850E94B00C90E0EECFDA0140
:101A0000E0912603F0E0FE2FEE27E60FF71F90E0AF
:101A1000982F8827A901BD018E0F9F1F0C94120BD0
:101A20008F929F92AF92BF92CF92DF92EF92FF92EE
:101A30001F93CF93DF93CDB7DEB72C970FB6F894F3
:101A4000DEBF0FBECDBF2091B90314E0222339F1D0
:101A50006B017C0180E591E00E9493015E0127E02B
:101A6000A20EB11C450110E063E070E0812F0E94DE
:101A70009D0BF40181934F01882349F11F5F1430BE
:101A800099F710E0F50181915F018D31D9F088312E
:101A9000C9F08A518230B0F01F5F143099F7812F5E
:101AA0002C960FB6F894DEBF0FBECDBFDF91CF915D
:101AB0001F91FF90EF90DF90CF90BF90AF909F90DD
:101AC0008F90089560E170E0812F0E94BA0BA12EE3
:101AD000B12C83EE93E00197F1F742E870E060E00B
:101AE000812F0E9435064FEF62E070E0812F0E9447
:101AF0003506B601C114D10491F480910001909192
:101B0000010101968115F0EC9F0708F45CC09093E9
:101B10000101809300016091000170910101812F0A
:101B20000E94200686E0E4E1F1E0DE0111960190DA
:101B30000D928A95E1F7F70183818F778C838481F9
:101B40008D8385818E83A7014E5F5F4F24E030E057
:101B50006CE070E0812F0E94FA05B601812F0E948F
:101B60000B0626E030E0AE014F5F5F4F66E070E0AD
:101B7000812F0E94FA0561E070E0812F0E94BA0B6C
:101B800027E02A9DC0012B9D900D11249C01235616
:101B90003C4F7901F9011182108222E030E0AE0160
:101BA000455F5F4F68E270E0812F0E94FF0C8B85DC
:101BB0009C85982789279827F7019383828316822B
:101BC000158214826CCF80E090ECA1CFCF92DF928F
:101BD000EF92FF920F931F93CF93DF9300D000D02B
:101BE00000D0CDB7DEB78C016B017A01FC01808D8E
:101BF000843010F40E94D60B8AEA91E09A8389839C
:101C0000F60182819381A481B5818B839C83AD830E
:101C1000BE83B701CE0101960E94100DF801808F9E
:101C20008430A0F4F586E486128E118E81E026962B
:101C30000FB6F894DEBF0FBECDBFDF91CF911F91DD
:101C40000F91FF90EF90DF90CF90089580E0EFCF5D
:101C5000AF92BF92CF92DF92EF92FF920F931F93BA
:101C6000CF93DF9300D000D000D0CDB7DEB7082FE0
:101C70006B0180E591E00E9493019E012F5F3F4F31
:101C80007901590110E063E070E0812F0E949D0B03
:101C9000F50181935F01882341F11F5F143099F7AB
:101CA00010E0F70181917F018D31D1F08831C1F0D1
:101CB0008A518230A8F01F5F143099F7812F269641
:101CC0000FB6F894DEBF0FBECDBFDF91CF911F914D
:101CD0000F91FF90EF90DF90CF90BF90AF9008955D
:101CE00060E170E0812F0E94BA0BE12EF12C83EEAF
:101CF00093E00197F1F7402F70E060E0812F0E94A0
:101D000035064FEF62E070E0812F0E943506B60184
:101D1000CD2889F4809100019091010101968115EF
:101D2000F0EC9F0798F1909301018093000160917E
:101D3000000170910101812F0E94200661E070E096
:101D4000812F0E94BA0B27E02E9DC0012F9D900D80
:101D500011249C0123563C4F7901F9011182108214
:101D600022E030E0AE014B5F5F4F68E270E0812F10
:101D70000E94FF0C8D819E81982789279827F70163
:101D80009383828316821582148298CF80E090EC30
:101D9000CACFCF92DF92EF92FF921F93CF93DF9340
:101DA000EC017B016A018C85843048F40E94EF0BC2
:101DB000882319F08C850E94CA0B84E08C87F70178
:101DC00082819381A481B5810097A105B10551F469
:101DD00090E080E0DF91CF911F91FF90EF90DF9036
:101DE000CF9008958F3F9F4FAF4FBF4F89F38091A2
:101DF000B903811103C084E08C87EACF70E060E012
:101E000081E20E94280E182F8C87843008F780E525
:101E100091E00E949301A7014E5F5F4F24E030E004
:101E20006CE070E0812F0E94FA05B601812F0E94BC
:101E30000B0664E070E0812F0E94BA0B0E941D0423
:101E40006B017C018C850E94EF0B873109F18C318D
:101E5000F9F0882309F4BCCF0E941D04AB01BC013A
:101E60004C195D096E097F098D859E85B0E0A0E063
:101E700084179507A607B70738F061E070E080E0A7
:101E800090E00E94EA03DECF8C850E94D60BB3CF90
:101E900081E090E09FCF0F931F93CF93DF93EC01EE
:101EA0008B01888D843010F40E94D60B8091B90389
:101EB000811107C094E0988FDF91CF911F910F910E
:101EC0000895B80182E00E94280E888F843030F493
:101ED0001D870C871A8E198E81E0EECF80E0ECCF43
:101EE0007F928F929F92AF92BF92CF92DF92EF92AA
:101EF000FF920F931F93CF93DF9300D0CDB7DEB740
:101F0000782E8B014A01590122E030E0AE014F5F8B
:101F10005F4F64E270E00E94FF0CE980FA80FE24CB
:101F2000EF24FE24E00EF11E970137704091B903B3
:101F3000072D10E0433309F042C0085F1F4F102FF8
:101F40000027110F110F110FC901800F911F473387
:101F5000C9F1A9014A0D5B1D4130584098F160E07C
:101F600078E06B01C21AD30AA601B4010E942905C8
:101F7000A5014C195D09B4016C0D7D1DC8010E94BD
:101F80002905EA0CFB1CF982EA8222E030E0AE016E
:101F90004F5F5F4F64E270E0872D0E94FA050F905B
:101FA0000F90DF91CF911F910F91FF90EF90DF90F5
:101FB000CF90BF90AF909F908F907F900895005FDB
:101FC0001F4FBDCFA501B401DACFEF92FF921F934F
:101FD000CF93DF9300D0CDB7DEB7182F22E030E0EB
:101FE000AE014F5F5F4F60E270E00E94FF0CE9803E
:101FF000FA80FE24EF24FE2422E030E0AE014F5FA1
:102000005F4F60E270E0812F0E94FF0C89819A810E
:10201000982789279827E816F90689F487E0189FFA
:10202000F0011124E356FC4FF582E482C7010F90C2
:102030000F90DF91CF911F91FF90EF9008957C0159
:10204000DBCF1F93CF93DF93182F80E591E00E94A1
:102050009301812F0E94E50FEC0163E070E0812F76
:102060000E949D0B873121F08C3111F0D0E0C0E04F
:10207000CE01DF91CF911F910895CF93DF93EC01B3
:102080008C85843060F40E94EF0B873111F08C3125
:1020900031F48C850E9421108115984088F3DF91DE
:1020A000CF910895FC018485843010F40C942110A4
:1020B00090E080E008959F92AF92BF92CF92DF921E
:1020C000EF92FF920F931F93CF93DF938C015B01ED
:1020D000942EE52EFC01C688D788F08C80E591E02F
:1020E0000E9493018F2D0E94E50FC92DDE2D8C17C4
:1020F0009D0708F4EC019E01A501B6018F2D0E94F9
:10210000700FF801868997898C0F9D1F978B868B9E
:10211000CE01DF91CF911F910F91FF90EF90DF9053
:10212000CF90BF90AF909F9008958F929F92AF9263
:10213000BF92CF92DF92EF92FF920F931F93CF93B4
:102140006C015B018A01FC01C485C430F0F57A01A1
:102150004130584018F0E12C88E0F82E80E591E0FD
:102160000E9493018C2F0E94E50F4C0163E070E008
:102170008C2F0E949D0B873111F08C3149F58E1404
:102180009F0460F380E591E00E9493019701A5010F
:1021900070E060E08C2F0E94700F60E270E08C2F86
:1021A0000E94BA0B62E070E08C2F0E949D0B84FDB0
:1021B00017C063E070E08C2F0E949D0B81110BC053
:1021C00081E090E0F6019383828310E000E010C08C
:1021D000F12CE12CD7CF80E591E00E949301E2CF72
:1021E00040E162E070E08C2F0E943506EF2841F359
:1021F000C801CF911F910F91FF90EF90DF90CF908A
:10220000BF90AF909F908F900895FF920F931F9370
:10221000CF93DF9300D0CDB7DEB7F82E22E030E0C9
:10222000AE014F5F5F4F66E270E00E94FF0C0981D4
:102230001A8110270127102722E030E0AE014F5FFE
:102240005F4F66E270E08F2D0E94FF0C89819A81BA
:102250009827892798270817190749F4C8010F906C
:102260000F90DF91CF911F910F91FF9008958C01F6
:10227000E3CF1F93CF93DF93182F87E0189FE001E0
:102280001124C356DC4F88819981009761F480E561
:1022900091E00E949301812F0E9405112E81821BE3
:1022A000910999838883DF91CF911F910895FC0153
:1022B0008485843010F40C94391190E080E0089506
:1022C0004F925F927F928F929F92AF92BF92CF92E6
:1022D000DF92EF92FF920F931F93CF93DF9300D083
:1022E000CDB7DEB7782E6B014A01A82EB12C27E0BE
:1022F000829FC0011124FC01E356FC4F7F01008145
:10230000118180E591E00E9493010815190554F4AC
:10231000872D0E940511F70126818C01021B1109EE
:10232000118300830115110529F563E070E0872D05
:102330000E949D0B843159F0882349F001E010E0A0
:102340008C3111F410E000E0119501951109C801DC
:102350000F900F90DF91CF911F910F91FF90EF9011
:10236000DF90CF90BF90AF909F908F907F905F90C5
:102370004F900895801691060CF4840187E08A9DA1
:10238000F0018B9DF00D1124E356FC4FE280F380A9
:10239000C114D10451F12701F7E05F22872D0E947B
:1023A000EC05840D951D2091B903273309F453C022
:1023B0009801240D351D2130384008F44CC020E030
:1023C00038E0490184189508A401B6010E94120B57
:1023D0002601480C591C6801C818D908872D0E948D
:1023E000EC05A601B2010E94120BE00EF11E87E07F
:1023F0008A9DF0018B9DF00D1124E356FC4FF38272
:10240000E28220813181201B310B31832083868140
:10241000800F912F911D8A3F910510F4232BF1F429
:1024200087E08A9DF0018B9DF00D1124E356FC4F4F
:102430001682F982EA8222E030E0AE014F5F5F4F00
:1024400068E270E0872D0E94FA0560E470E0872D55
:102450000E94BA0B7CCFA801B601C5CF868377CF87
:10246000CF93DF93FC01218D328D2115310529F4A5
:102470008FEF9FEFDF91CF910895EC01808D421790
:10248000530708F0A9010E9460111816190684F775
:10249000298D3A8D281B390B3A8F298FEBCF0F935B
:1024A0001F93CF93DF931F92CDB7DEB7FC01218D31
:1024B000328D232B41F48FEF9FEF0F90DF91CF915F
:1024C0001F910F9108958C0141E050E0BE016F5FB4
:1024D0007F4FFC01808D0E946011181619065CF771
:1024E000F801818D928D0197928F818F898190E083
:1024F000E4CFCF93DF931F92CDB7DEB741E050E03A
:10250000BE016F5F7F4FFC0184850E946011181629
:10251000190634F4898190E00F90DF91CF910895EE
:102520008FEF9FEFF9CFFC018485843010F40C9479
:10253000601190E080E008950F931F93CF93DF9395
:1025400000D0CDB7DEB7FC0124852430E0F48C0147
:1025500080E591E00E94930122E030E0AE014F5F00
:102560005F4F60E170E0F80184850E94FF0C898173
:102570009A819827892798270F900F90DF91CF9104
:102580001F910F91089590E080E0F6CF0F931F9375
:10259000CF93DF9300D0CDB7DEB7FC012485243084
:1025A000E0F48C0180E591E00E94930122E030E0AC
:1025B000AE014F5F5F4F64E070E0F80184850E94D8
:1025C000FF0C89819A819827892798270F900F906F
:1025D000DF91CF911F910F91089590E080E0F6CFA9
:1025E000DC018AEA91E08D939D9384E0FB010190E8
:1025F0000D928A95E1F70895EF92FF920F931F9342
:10260000CF93DF9300D000D0CDB7DEB78C017B0134
:10261000FB0184858430A8F08AEA91E0F801918377
:1026200080831282138214821582C8010F900F904A
:102630000F900F90DF91CF911F910F91FF90EF902E
:10264000089580E591E00E94930124E030E0AE011E
:102650004F5F5F4F6CE070E0F70184850E94FF0CD4
:10266000BE016F5F7F4FC8010E94F012DECF0F9353
:102670001F93CF93DF93CDB7DEB728970FB6F894AB
:10268000DEBF0FBECDBF8C01D80159964D915C9134
:102690005A974115510551F0ED91FC91048CF58D3F
:1026A000E02D70E060E0C8010995EECFF801808D63
:1026B0000E943911892BB1F148E050E0BE016F5FF3
:1026C0007F4FD80158968C910E94601118161906F8
:1026D000F4F4D801509684E0FE01319601900D92F9
:1026E0008A95E1F78D8190E0982F88272E81820FBF
:1026F000911DF801958B848B8F81282F30E0322F2C
:1027000022278885820F932F911D928F818F289683
:102710000FB6F894DEBF0FBECDBFDF91CF911F91F2
:102720000F91089590E080E0F2CF4F925F926F9208
:102730007F928F929F92AF92BF92CF92DF92EF9251
:10274000FF920F931F93CF93DF93CDB7DEB76397BD
:102750000FB6F894DEBF0FBECDBF7C016B013A010E
:10276000FB0120E090E080E06AE03191332309F43E
:1027700061C040ED430F4A3008F04DC0689FA00192
:10278000699F500D1124CA01C097830F911D37FD19
:102790009A958F3F910549F340F3F70142815381A8
:1027A000648175818091830490918404A091850453
:1027B000B0918604481759076A077B0709F40DC2D0
:1027C0008701085F1F4F0E941D046F7077277C5F91
:1027D000C8010E944B0F813009F004C28AEA91E0DF
:1027E0009A838983F70182819381A481B5818B8348
:1027F0009C83AD83BE8345E350E0BE016F5F7F4F96
:10280000C8010E948A06892BA9F5D12CC12CC801C8
:102810000E94E20B17C03E3209F0BFCF233009F40B
:10282000BCCFD301A20FB11D12968C932F5F90E005
:1028300080E09BCF233009F0B0CFF3018583CC2417
:10284000C394D12CC60163960FB6F894DEBF0FBEB9
:10285000CDBFDF91CF911F910F91FF90EF90DF904F
:10286000CF90BF90AF909F908F907F906F905F9030
:102870004F9008950E941D04F7017783668342E01C
:1028800050E0B7016A5F7F4FC8010E945B1081E092
:1028900090E09A83898342E050E0BE016F5F7F4FF2
:1028A000C8010E945B1080E091E09A83898342E036
:1028B00050E0BE016F5F7F4FC8010E945B101A821B
:1028C000198242E050E0BE016F5F7F4FC8010E9455
:1028D0005B1042E050E0BE016F5F7F4FC8010E9475
:1028E0005B1042E050E0BE016F5F7F4FC8010E9465
:1028F0005B105601F6018081882301F16501F60124
:1029000081912F01882311F08E32B1F446018A188B
:102910009B081814190474F48D8641E050E0BE0140
:10292000635F7F4FC8010E945B10A401B501C8011D
:102930000E945B105201DECF6201E1CF1D8641E0B3
:1029400050E0BE01635F7F4FC8010E945B10C12C45
:10295000DD24D394DA82C98242E050E0BE016F5F89
:102960007F4FC8010E945B10DA82C98242E050E0CA
:10297000BE016F5F7F4FC8010E945B10C8010E94BB
:10298000560C892B09F441CFF3E0AF2EB12C230173
:1029900022E0420E511CD4C0F70142815381648170
:1029A0007581808D918DA28DB38D481759076A0767
:1029B0007B0709F008C1848D958DC59709F003C187
:1029C00081A192A15DEFC52EDD24DA940C970CF461
:1029D000ADC04CE050E0BE016F5F7F4FC8010E9468
:1029E00030128B819C819827892798279A8B898B15
:1029F000F7014681578129813A814217530709F02F
:102A0000E7C097FFE5C08F7092703BEFC32EDD24C7
:102A1000DA94892B09F08AC06F8078847624672441
:102A200076242AEFC22EDD24DA946114710409F4AD
:102A30007DC0D12CC12C8D819E8198278927982714
:102A4000C816D906F8F441E050E0BE01635F7F4F3D
:102A5000C8010E9430124D85442331F050E070E0EF
:102A600060E0C8010E9430128D858111ECCF44E0F6
:102A700050E070E060E0C8010E943012FFEFCF1A12
:102A8000DF0AD9CF912C812C41E050E0BE016D5E70
:102A90007F4FC8010E9430124B89842F807C09F03F
:102AA0006CC0442331F050E070E060E0C8010E9447
:102AB00030128B898111E8CF42E050E0BE01615FA6
:102AC0007F4FC8010E94301242E050E0BE01635FB8
:102AD0007F4FC8010E94301244E050E070E060E097
:102AE000C8010E94301242E050E0BE016F5E7F4F8D
:102AF000C8010E9430128F85988949895A898115A9
:102B0000914009F043C0CD84DE84DC24CD24DC2454
:102B100081E0C816D104D1F54115544009F04AC0EE
:102B200044E050E0B201C8010E94301221E0A21A34
:102B3000B10809F46CCEFFEFCF16DF0609F067CEBF
:102B40000E941D043B014C01C8010E943713181656
:102B500019060CF421CF0E941D0466197709880913
:102B60009909693873418105910548F562E370E080
:102B700080E090E00E94EA03E7CF41E050E070E09F
:102B800060E0C8010E9430121B8A93CF542745276A
:102B9000542770E060E0C8010E943012FFEF8F1AE6
:102BA0009F0A6814790409F06FCF96EFC92EDD24CF
:102BB000DA94BCCFE7EFCE2EDD24DA94B7CFCC2465
:102BC000CA94DC2CB3CF6EEFC62EDD24DA94AECFE0
:102BD0004CEFC42EDD24DA94A9CF8EEFC82EDD246D
:102BE000DA9430CED12CC12C2DCECF92DF92EF9241
:102BF000FF920F931F93CF93DF93CDB7DEB7AF97BD
:102C00000FB6F894DEBF0FBECDBF7C016A010AEAA1
:102C100011E01A8309831C861B8688EE93E0A0E0EE
:102C2000B0E08D879E87AF87B88B8EE191E09A8761
:102C30008987188F0F8B198E1A8E1B8E1C8E84E03D
:102C400089A31BA70AA71CA61DA61EA61FA68091C6
:102C5000770490917804A0917904B0917A048EA3BE
:102C60009FA3A8A7B9A78B839C83AD83BE83188637
:102C70001F82AE01465D5F4FCE0101960E94951303
:102C800081309105B1F4D701ED91FC910488F5896B
:102C9000E02D1DA30CA38CA59DA5AEA5BFA58EA35D
:102CA0009FA3A8A7B9A7A601BE016C5D7F4FC7016E
:102CB0000995AF960FB6F894DEBF0FBECDBFDF917A
:102CC000CF911F910F91FF90EF90DF90CF900895DB
:102CD000CF92DF92EF92FF920F931F93CF93DF93E8
:102CE000CDB7DEB7AF970FB6F894DEBF0FBECDBF3E
:102CF0008C016B017A018AEA91E09A8389831B82B5
:102D00001C821D821E821C861B8648EE53E060E0FA
:102D100070E04D875E876F87788B2EE131E03A87D0
:102D20002987988F8F8B198E1A8E1B8E1C8E24E00C
:102D300029A39BA78AA71CA61DA61EA61FA6D8016D
:102D40001C968C91843060F40E94EF0B882321F054
:102D5000F80184850E94CA0B84E0D8011C968C93EC
:102D60008091770490917804A0917904B0917A04CD
:102D70008EA39FA3A8A7B9A78B839C83AD83BE8393
:102D800018861F82AE01465D5F4FB601CE010196E7
:102D90000E9495130097C1F0D801ED91FC91068433
:102DA000F785E02D8AEA91E09DA38CA38CA59DA5D3
:102DB000AEA5BFA58EA39FA3A8A7B9A7A701BE01D3
:102DC0006C5D7F4FC8010995AF960FB6F894DEBFD2
:102DD0000FBECDBFDF91CF911F910F91FF90EF906C
:102DE000DF90CF9008950F931F93CF93DF93EC0163
:102DF000FB0101900020E9F78F01061B170B8A8168
:102E00009B81A801480F591F2C813D81241735074C
:102E100068F028813981A801820F931F0E949D3498
:102E20004A815B81400F511F5B834A83DF91CF91C1
:102E30001F910F9108953F924F925F926F927F92F0
:102E40008F929F92AF92BF92CF92DF92EF92FF92BA
:102E50000F931F93CF93DF93CDB7DEB7EA970FB6EB
:102E6000F894DEBF0FBECDBF7C012A013B01690192
:102E70000E941D044B015C0187010D5B1F4FC801BF
:102E80000E943713181619069CF00E941D04681939
:102E900079098A099B09461657066806790608F4D7
:102EA00066C162E370E080E090E00E94EA03E7CF51
:102EB00042E250E0BE016F5F7F4FC8010E943012B6
:102EC00089818230D1F0312C832DEA960FB6F894A7
:102ED000DEBF0FBECDBFDF91CF911F910F91FF904D
:102EE000EF90DF90CF90BF90AF909F908F907F90AA
:102EF0006F905F904F903F900895F8018489958975
:102F00008334910501F76D817E818F8198850E94C0
:102F100018344B015C01F60180829182A282B38257
:102F200046E050E0B701685F7F4FCE014D960E94AA
:102F30009034892B41F6F70180819181A281B38180
:102F400088169906AA06BB0608F4BDCF8481958130
:102F5000A681B78188159905AA05BB0508F4B3CFEA
:102F600089899A89AB89BC8986879787A08BB18B21
:102F70004EEC50E070E060E0C8010E943012312C4D
:102F8000C701829698AB8FA7F701B696FAABE9AB6B
:102F900008969CAB8BAB67019AE1C90ED11CBD961C
:102FA000FEABEDABC701429698AF8FABFD97FAAF82
:102FB000E9AF4701FEE18F0E911CF801818D928DE2
:102FC000181619060CF080CFC8010E944F128333E7
:102FD000910509F4B2C014F58130910509F464C07B
:102FE00044F4892B51F3C8010E944F12AC015527BC
:102FF00075C08330910509F462C00697A1F7C80136
:103000000E944F12B82E44E050E0B401C8010E9463
:103010003012EB2DE450FF0BAF0160C08A339105F5
:1030200009F45FC084F585339105B1F1C697D9F6EF
:10303000C8010E944F125C01B601CE0189960E9420
:10304000F0128BA59CA5ADA5BEA5892B8A2B8B2B39
:10305000B1F0EDA9FEA94080518062807380B60175
:10306000CE0183960E94F0128DA19EA1AFA1B8A5BA
:10307000A501481659066A067B0609F0B8CF44E058
:1030800050E0B60118C08B33910509F440C08F3F62
:10309000910509F492CFA7CFC8010E944F12C80131
:1030A0000E944F12382E89CFC8010E944F1244E06F
:1030B00050E06FA978ADC8010E9430127ECFC801E0
:1030C0000E944F12B82E44E050E069AD7AADC801BD
:1030D0000E9430128B2D8450990BAC0170E060E09F
:1030E000EACFC8010E944F1244E050E069A97AA9D2
:1030F000C8010E943012F70166A177A180A591A5B1
:103100000E94183466A377A380A791A756CFC80161
:103110000E944F1244E050E06BA97CA9C8010E94B4
:103120003012F70162A573A584A595A50E941834F5
:1031300062A773A784A795A740CFC8010E944F122A
:1031400044E050E06FA578A9C8010E943012F70151
:1031500062A173A184A195A10E94183462A373A3F4
:1031600084A395A366A777A780AB91AB26CF332422
:103170003A94AACE7F928F929F92AF92BF92CF92B3
:10318000DF92EF92FF920F931F93CF93DF93CDB710
:10319000DEB7A6970FB6F894DEBF0FBECDBF8C0189
:1031A000762E942E852E20E2A22ECE0101967C0151
:1031B000DC01EA2D1D92EA95E9F76801F3E4CF0EF0
:1031C000D11C8AEA91E09AA389A38FEF8BA38CA3E9
:1031D0008DA38EA343E450E0BE016F5D7F4FC60117
:1031E0000E948A06019609F4BFC081E089838A8320
:1031F00086E0B82EBB821C82D80114966D917D9119
:103200008D919C9117970E9418346D837E838F83D4
:10321000988789869A8680E890E09C878B874CE126
:1032200050E0B701C6010E945B10FE0137968AE1AB
:10323000DF011D928A95E9F74801B8E08B0E911CD9
:10324000F401D70101900D92BA94E1F740E150E00A
:10325000B701C6010E945B10F7011192AA94E9F729
:1032600096E0A92EB12C40E250E0B701C6010E94C1
:103270005B10F1E0AF1AB108B1F783E6898392E8F9
:103280009A8393E59B838C8385E38D8381E08E8392
:103290007F829DE3988797E099878A8786E0F4018B
:1032A000DE011B9601900D928A95E1F78CE0898BE7
:1032B0008A8B60EE71E0CE0143960E94B634D8014D
:1032C0001B966C91CE0149960E949601F801648587
:1032D000CE014B960E949601D8011D966C91CE01AD
:1032E0004D960E9496014EE150E0B701C6010E9442
:1032F0005B10B3E07B121EC082E3898384E08A8383
:10330000F80196859B8397859C8390899D839189FD
:103310009E8396E39F838887828D8987838D8A87A2
:10332000848D8B87858D8C874CE050E0B701C6017A
:103330000E945B1087E3898386E08A8391E09B8308
:1033400093E09C838D838FE08E838AE38F838BE36E
:1033500088878FEF898749E050E0B701C6010E9456
:103360005B10C6010E94560CA6960FB6F894DEBFFD
:103370000FBECDBFDF91CF911F910F91FF90EF90C6
:10338000DF90CF90BF90AF909F908F907F900895E7
:1033900085ED8093BC008091AA029091AB02A09130
:1033A000AC02B091AD020796A11DB11D23E0B69508
:1033B000A795979587952A95D1F72091BC0024FD74
:1033C00003C01092F30208954091AA025091AB02FB
:1033D0006091AC027091AD02452B462B472B69F3EF
:1033E0000097A105B10541F025E32A95F1F700000A
:1033F0000197A109B109E1CF8091A9020C94250799
:103400000F931F93CF93DF93CDB7DEB728970FB6F7
:10341000F894DEBF0FBECDBF8C01CB014AE0BE01E8
:103420006F5F7F4F0E94A92EBE016F5F7F4FC80163
:103430000E94F31628960FB6F894DEBF0FBECDBFDC
:10344000DF91CF911F910F9108953F924F925F921C
:103450006F927F928F929F92AF92BF92CF92DF92A4
:10346000EF92FF920F931F93CF93DF93CDB7DEB709
:10347000A1970FB6F894DEBF0FBECDBF5C010DB7AC
:103480001EB719A308A360E070E0CB010E94EA0315
:10349000D50191968D919C919297912C029709F468
:1034A00098C090968C9190978F5F90968C93909700
:1034B0005E962D913C91232B19F09924939482C010
:1034C0008330D8F7F501828593850E9419098823F6
:1034D00009F440C38E010F5F1F4F3801D5011A96C2
:1034E000ED91FC9180819181DC01ED91FC91008452
:1034F000F185E02D0995181619060CF02BC3D5019E
:103500001A96ED91FC9145E050E0BE01695E7F4F57
:10351000808191810E94A304009701F3059709F02F
:103520004AC0888D998D982789279827998F888FE9
:10353000EA8CFB8CFE24EF24FE24FB8EEA8E892B82
:10354000D1F18F8981116AC00E941D04F501608B41
:10355000718B828B938B21A132A14A8D5B8D232BA2
:1035600009F057C0288D398D2130310509F051C03F
:1035700049305105E1F0483C510519F044305105FE
:10358000D1F4D50158966D937D938D939C935B9761
:10359000E1E0F0E09296FC93EE939197C5010E94D2
:1035A000662360E070E0CB010E94EA0397CF83E0DE
:1035B00090E092A381A3D5011A968D919C910E94CF
:1035C0002C09912CD50190968C91909781509096D2
:1035D0008C93892DE8A1F9A10FB6F894FEBF0FBE18
:1035E000EDBFA1960FB6F894DEBF0FBECDBFDF9141
:1035F000CF911F910F91FF90EF90DF90CF90BF90F0
:10360000AF909F908F907F906F905F904F903F9082
:1036100008954530510509F061CFCDCFF501828580
:103620009385F1E0EF16FF0640F0D50192961C92CB
:103630001E9291970E942C0951CF8DB69EB697018C
:103640002F5F3F4FEDB7FEB7E21BF30B0FB6F894B9
:10365000FEBF0FBEEDBF0DB71EB70F5F1F4FA70117
:10366000B801DC018D919C910E94A3048E159F05E9
:1036700009F05FC0EA8DFB8DE00FF11F10820E9400
:103680001D04F501608B718B828B938B8F89843144
:1036900009F4ABC0E8F48F3009F4A7C0813109F414
:1036A0003CC2863009F04EC2488D598DD12CC12CB8
:1036B000F12CE12C08EC10E030E020E060E0C501E6
:1036C0000E949D1E0FB6F8949EBE0FBE8DBE06CF03
:1036D0008932C9F08733B1F38D3109F033C2D50196
:1036E00081A192A1892B01F7E1E0F0E09296FC9391
:1036F000EE939197C5010E94662360E070E0CB01D4
:103700000E94EA03D1CF86859785892B39F480E41E
:1037100090E00E94922CF50197878687EA8CFB8CBB
:10372000E00EF11E1A830983FC82EB820E151F0541
:1037300030F00FB6F8949EBE0FBE8DBE3CCF40E475
:1037400050E0B801D5011E968D919C910E94BD3428
:10375000D5011E96ED91FC9117AEC3010E94442342
:10376000FC018081918100E510E08E159F0560F4D9
:1037700089819A810097A9F12B813C818217930757
:1037800080F50E94792E8B01D5011A968D919C911E
:103790000E942C09D5011A96ED91FC911B971E965B
:1037A0008D919C911F9791878087138702879296AE
:1037B0001C921E9291970E941D04DC01CB01885837
:1037C0009341A109B109F501848B958BA68BB78B29
:1037D000808B918BA28BB38B808F918FA28FB38FB5
:1037E00071CF60E070E0CB01CECF888D998DD5018F
:1037F0005F969C938E935E974A8C5B8C6801C40C99
:10380000D51C1D8F0C8FDF8ECE8E0C151D0508F07C
:1038100013C1F801E080F180CE014C960E94442350
:10382000DC018D919C918C159D0508F005C18C8D56
:103830009D8DFC012081213459F401960E945B2E5C
:103840004EE0342E380E069744F033243A9405C0E7
:10385000CE014C960E945723382EF6E7EF16F2E77A
:10386000FF0609F406C138F531E6E31632E7F30640
:1038700009F4E6C044E6E41642E7F40609F478C029
:1038800050E7E5165DE6F50609F039C18C8D9D8D92
:103890008C159D0508F0D0C0FC0120812134A9F5CC
:1038A00001960E945B2E3EE0F32EF80E069794F1EF
:1038B000FF24FA942FC084E6E81687E7F80609F497
:1038C000A2C096E7E91697E7F90609F4EAC0A1E66F
:1038D000EA16A7E7FA0609F012C1CE014C960E943B
:1038E0004423DC018D919C918C159D0508F0A4C0AA
:1038F00061E0832D0E941703CE014C960E9457234E
:10390000BC01832D0E94530397C0CE014C960E94A8
:103910005723F82ECE014C960E9444230C8D1D8D0A
:1039200067EE71E0C8010E94AD3460E0892B79F048
:103930006AEE71E0C8010E94AD34892B39F06EEE59
:1039400071E0C8010E94AD34892B49F461E08F2DEC
:103950000E941703CE014C960E94442397CF62EF3A
:1039600071E0C8010E94AD34892BA1F762E0EFCF6E
:103970007A8A698A1C8A1B8A00E110E01E8B0D8BF3
:1039800065EF71E0CE0141960E94F316032D10E021
:10399000B801CE0141960E94001AF801E85CFD4F83
:1039A0008491F801EC5DFD4FF490005F1D4FF8012C
:1039B000049160E070E0002389F081110E94C00250
:1039C000E02FF0E0EE0FFF1FEA5FFD4FA591B491ED
:1039D000EC91FE2261E070E009F460E0CE014196D6
:1039E0000E94001A0B891C890150110929893A8902
:1039F000D12CC12CF12CE12C50E040E064E1C50158
:103A00000E949D1E19C0CE014C960E944423DC01E9
:103A10008D919C918C159D0578F461E0832D0E9419
:103A20001703CE014C960E94572361E0892B09F4BD
:103A300060E0832D0E94E902F501178E168E42CEBA
:103A40007A8A698A1C8A1B8AE0E1F0E0FE8BED8BA2
:103A500068EF71E0CE0141960E94F316632D70E08D
:103A6000CE0141960E94001A832D0E94B003BC0132
:103A7000B5CFE32DF0E0FA83E983BFE1B315E0F2BF
:103A8000EE0FFF1FE45BFD4F2591349121153105A9
:103A900099F2E1E022393E0779F2C301F901099573
:103AA000CBCFCE014C960E9444238C8D9D8D9C01E2
:103AB000201B310B421A530A9A8389835C824B8202
:103AC0005E824D82E32DF0E0FA8BE98B0FE1031566
:103AD00008F4B2CFEE0FFF1FE457FD4F259134914C
:103AE0002115310509F4A8CF11E02139310709F476
:103AF000A3CFB301CE014196F90109959DCFD50120
:103B00005E964D915C91D12CC12CF12CE12C02E000
:103B100010E030E020E060E072CF8A8D9B8D800F56
:103B2000911F1A8309839C838B830817190708F058
:103B3000C9CDC3010E944423D5015F961C921E92F9
:103B40005E97C0CDF50112A211A2828593850E94D5
:103B50002C09B8CD0E941D042B013C01F501828582
:103B600093850E941909D50191962D913C912130A0
:103B7000310509F05EC0F501811109C0408E518EFA
:103B8000628E738E12A211A28285938518CD8089D0
:103B90009189A289B38993018201081B190B2A0B11
:103BA0003B0BD901C801893116EF9107A105B10579
:103BB00048F7893C9F4AA105B10590F4848995890D
:103BC000A689B78993018201081B190B2A0B3B0BAD
:103BD000D901C801893C9F4AA105B10508F46DCC03
:103BE000F501808D918DA28DB38D93018201081B0B
:103BF000190B2A0B3B0BD901C80181379741A1054D
:103C0000B10508F45ACCD12CC12CF12CE12C10E0D8
:103C100000E030E020E050E040E066E0C5010E94B6
:103C20009D1ED50158964D925D926D927C925B9748
:103C300044CC232B09F041CCF501408D518D628D90
:103C4000738D93018201041B150B260B370BB901F1
:103C5000A801882381F0413757416105710508F4B7
:103C60002CCC828593850E942C09D50192961C92BA
:103C70001E929197A6CC493853416105710508F40D
:103C80001CCC828593850E942C09D5011A960D9132
:103C90001C91F80162857385C8010E94D208D80181
:103CA0001C968C931C9781110DC01A968D919C9136
:103CB0008035910599F460E97FE1C8010E94D2083E
:103CC000F8018487F8019484911014C0D5015896A6
:103CD0004D925D926D927C925B9774CC80399F413E
:103CE00089F760E570E0C8010E94D208D8011C96EF
:103CF0008C93E8CF81E090E0F501958F848F248547
:103D00003585F90101900020E9F731978F01021BF9
:103D1000130BD12CC12CF12CE12C41E050E06DE1D2
:103D2000C5010E949D1EF50184899589A689B789E0
:103D3000808F918FA28FB38F45CC2F923F924F925D
:103D40005F926F927F928F929F92AF92BF92CF922B
:103D5000DF92EF92FF920F931F93CF93DF93CDB734
:103D6000DEB7C854D1090FB6F894DEBF0FBECDBF81
:103D70004C0168AF5AAF49AF27963FAF2EAF279798
:103D800021961FAF0EAF21972996FFAEEEAE299771
:103D90002396DFAECEAE2397DC011A968D919C91CF
:103DA0000E941909882309F4B7C1B8ADBB2351F0AB
:103DB000B63041F0BD3131F0F40181A192A10197FB
:103DC00009F0AAC188AD8F508630A0F5D401549671
:103DD0004D915D916D917C9157975096CD90DD906E
:103DE000ED90FC905397C416D506E606F70610F43E
:103DF0006A017B01B2E4CB0ED11CE11CF11C0E94D4
:103E00001D04A7019601261B370B480B590BDA013D
:103E1000C901B7FD9BC1C4010E94251A0E941D045F
:103E2000A7019601261B370B480B590BDA01C90174
:103E3000B7FFF1CFF40180819181019709F0B2C001
:103E400082E090E091838083228133814481558197
:103E50006681778180859185A0E0FE017A960E9437
:103E60007E3409F486C1FBABEAAB1DAA1CAA88E12B
:103E700090E09FAB8EAB65EE71E0CE01C2960E94E2
:103E8000F316D40112964C90129713965C901397E8
:103E900014966C90149715967C9015971696BC9175
:103EA000BBAFF401F781FCAFD40118962C901897A2
:103EB00019963C90198E9201A3016BAD7F2FC10121
:103EC000A0E00E947E3409F44AC1FE01799625964D
:103ED000FFAFEEAF259727E130E03EAF2DAF8AE090
:103EE000A82EB12CC12CD12CE12CF12C00E010E03B
:103EF0009201A3016BAD7CADC1010E941F34F90199
:103F0000E350FE4F80812596AEADBFAD25978E93D1
:103F10002596BFAFAEAF2597EDADFEAD3197FEAFA5
:103F2000EDAF9AE0A92EB12CC12CD12CE12CF12CB3
:103F300000E010E09201A3016BAD7CADC1010E94D5
:103F4000213429013A016BAF7CAF1C01A0E00E9433
:103F50007E3421F04DAD5EAD452B09F66DAD7EADE5
:103F60006C0F7D1F6E5F7F4F09F0FEC0EAA9FBA9B1
:103F70008CA99DA99C012F5F3F4F3DAB2CABE80F57
:103F8000F91F10820CA91DA9015011092AA93BA9EA
:103F9000D12CC12CF12CE12C50E040E065E1C401B2
:103FA0000E949D1E29AD3AAD232BB9F4D4015E9633
:103FB0000D90BC91A02DBAAFA9AFAB2B71F4F40159
:103FC000848D958D019609F4E9C0958F848FF40155
:103FD000048CF58DE02DFAAFE9AF27962EAD3FADFD
:103FE000279721960EAD1FAD21970B5F1F4F232BF7
:103FF00011F405E010E029964EAD5FAD299790E0F1
:1040000080E0452B21F023968EAD9FAD2397080FBE
:10401000191F58AD598389AD9AAD982789279827DC
:104020009B838A8321968EAD9FAD21972396AEAD5B
:10403000BFAD23978A0F9B1F9827892798279D83B9
:104040008C83D4011A96ED91FC9180819181DC01E1
:10405000ED91FC910280F381E02D45E050E0BE013E
:104060006F5F7F4F09957C0160E070E0CB010E949B
:10407000EA03B8ADBB2309F444C02196EEADFFAD11
:104080002197EF2BE1F0D4011A96ED91FC918081FC
:104090009181DC01ED91FC910280F381E02D21966C
:1040A0004EAD5FAD219727966EAD7FAD27970995F1
:1040B000E80EF91E60E070E0CB010E94EA0323964F
:1040C000EEADFFAD2397EF2BE1F0D4011A96ED9101
:1040D000FC9180819181DC01ED91FC910280F38162
:1040E000E02D23964EAD5FAD239729966EAD7FAD43
:1040F00029970995E80EF91E60E070E0CB010E9457
:10410000EA03E016F10609F44EC0F40112A211A26E
:10411000828593850E942C09C85BDF4F0FB6F89407
:10412000DEBF0FBECDBFDF91CF911F910F91FF90EA
:10413000EF90DF90CF90BF90AF909F908F907F9047
:104140006F905F904F903F902F900895D40190967C
:104150008C9181116FCEC4010E94251A6BCE80E331
:10416000888FBE01685E7F4FCE01C2960E94F31613
:1041700009CFFA83E9831C821B8284E090E09E834E
:104180008D836BEF71E0CE0101960E94F3160B81D7
:104190001C810150110929813A81FACE81E090E019
:1041A000958F848F14CF0E941D04D40154966D9373
:1041B0007D938D939C935797AFCFCF92DF92EF92E1
:1041C000FF920F931F93CF93DF93CDB7DEB7C75AFC
:1041D000D1090FB6F894DEBF0FBECDBF8C016A01C6
:1041E0007B01CE010196CE55DF4F99838883C25A59
:1041F000D040CC55DF4F19821882C45AD04080E895
:1042000090E0CA55DF4F99838883C65AD04061E257
:1042100072E0CE018E559F4F0E94F316B801CE0179
:104220008E559F4F0E94001A8E010F571F4F23E09B
:1042300045E0C701B6010E94742CB801CE018E552D
:104240009F4F0E94F316CC55DF4F08811981C45A45
:10425000D04001501109CE55DF4F28813981C25A13
:10426000D040D12CC12CF12CE12C50E040E064E195
:1042700087E595E00E949D1EC955DF4F0FB6F89463
:10428000DEBF0FBECDBFDF91CF911F910F91FF9089
:10429000EF90DF90CF9008950E94B608AB01BC016B
:1042A00081E090E00C94DD20CF9380E390E00E94C9
:1042B0009B028AEB93E00E940C02892BD1F38AEBDC
:1042C00093E00E94EA01C82F8093650290936602F2
:1042D0008AEB93E00E940C02892BD1F38AEB93E0E6
:1042E0000E94EA0160E07C2F682B792B90E080E04F
:1042F0000E943731AB01BC0187E090E0CF910C9474
:10430000DD200C942E2D1F920F920FB60F921124C8
:104310002F933F934F935F936F937F938F939F93CD
:10432000AF93BF93EF93FF938AEB93E00E942C022D
:10433000FF91EF91BF91AF919F918F917F916F917D
:104340005F914F913F912F910F900FBE0F901F9053
:1043500018951F920F920FB60F9211242F938F93DF
:104360009F93EF93FF93E091CA03F091CB03808179
:10437000E091D003F091D10382FD1BC09081809128
:10438000D3038F5F8F732091D403821741F0E091A4
:10439000D303F0E0E654FC4F958F8093D303FF9155
:1043A000EF919F918F912F910F900FBE0F901F90C3
:1043B00018958081F4CF1F920F920FB60F9211249F
:1043C0002F933F938F939F93AF93BF9380911A0343
:1043D00090911B03A0911C03B0911D033091190310
:1043E00023E0230F2D3758F50196A11DB11D209311
:1043F000190380931A0390931B03A0931C03B0939B
:104400001D0380911E0390911F03A0912003B09182
:1044100021030196A11DB11D80931E0390931F03DC
:10442000A0932003B0932103BF91AF919F918F91EF
:104430003F912F910F900FBE0F901F90189526E877
:10444000230F0296A11DB11DD2CF1F920F920FB65E
:104450000F9211242F933F934F935F936F937F930A
:104460008F939F93AF93BF93EF93FF938091B90086
:10447000887F803609F44AC0F0F5883209F4A7C075
:1044800018F5803109F49BC0B8F4882309F4F9C009
:10449000883009F494C0FF91EF91BF91AF919F9143
:1044A0008F917F916F915F914F913F912F910F90DD
:1044B0000FBE0F901F901895883109F488C0803284
:1044C00051F78093F20214C0803409F49DC040F487
:1044D0008033B9F38833F9F68093F20285ECB0C0EB
:1044E000803509F485C0883509F496C0883499F67A
:1044F0000E94C819D0CF883909F48CC038F58837A4
:1045000029F050F4883611F0803729F683E0809343
:10451000F3021092F10257C0883809F47BC0803949
:1045200019F0803809F0B7CF8091F102803208F09D
:1045300071C0E091F10281E08E0F8093F1028091D1
:10454000BB00F0E0EF52FD4F80833DC0803B39F06F
:10455000E0F4803A09F479C0883A09F09CCF84E00D
:104560008093F3021092D0021092CF02E091920356
:10457000F091930309958091CF0281110FC081E0E2
:104580008093CF021092AF0209C0803C09F4A6CFFD
:10459000883C09F4A3CF883B09F07DCFE091D0029D
:1045A00081E08E0F8093D002F0E0E155FD4F8081D5
:1045B0008093BB009091D0028091CF0229C080915E
:1045C00018038093BB0085EC8093BC0064CF90916E
:1045D000170380911603981758F5E091170381E0AF
:1045E0008E0F80931703F0E0EA50FD4F8081E9CFF2
:1045F000E091170381E08E0F809317038091BB0039
:10460000F0E0EA50FD4F80839091170380911603EC
:104610009817C8F285E8D8CFE091170381E08E0F94
:10462000809317038091BB00F0E0EA50FD4F808338
:104630008091F50281115CCF81E08093F40284EADD
:104640008093BC001092F30226CF85EC8093BC00CF
:104650001092F3028091F102803230F4E091F10285
:10466000F0E0EF52FD4F10826091F10270E0E091B6
:104670009003F091910381ED92E009951092F1027F
:104680000ACF1092F20234CFDC01ED91FC91119728
:10469000309761F012962D913C911397E217F30732
:1046A00028F401900020E9F7ED93FC930895FC01B4
:1046B00080819181009739F022813381821793079D
:1046C00010F40C945B2E90E080E00895AF92BF92BE
:1046D000CF92DF92EF92FF920F931F93CF93DF93CE
:1046E000CDB7DEB7CC5CD1090FB6F894DEBF0FBEF4
:1046F000CDBF5C01CE0189579F4FC953DF4F9983CE
:104700008883C75CD040C753DF4F19821882C95CC9
:10471000D04080E490E0C553DF4F99838883CB5C21
:10472000D0406EE072E0CE0189539F4F0E94F31695
:1047300063E172E0CE0189539F4F0E94F31646E871
:1047400050E06AE671E0CE0101960E94A02EC753A8
:10475000DF4FC880D980C95CD04081E0C81AD10839
:10476000C953DF4FE880F980C75CD04006E810E00D
:104770009E012F5F3F4F50E040E061E1C5010E9484
:104780009D1EC453DF4F0FB6F894DEBF0FBECDBFE2
:10479000DF91CF911F910F91FF90EF90DF90CF901D
:1047A000BF90AF900895EAEBF3E01382128248EED7
:1047B00053E060E070E0448355836683778388E448
:1047C00091E09183808385EC90E09587848784ECE9
:1047D00090E09787868780EC90E0918B808B81ECCE
:1047E00090E0938B828B82EC90E0958B848B86ECAF
:1047F00090E0978B868B118E128E138E148EE7E5C8
:10480000F4E08AEA91E09183808312821382148219
:104810001582EDE5F4E09183808312821382148285
:104820001582E3E6F4E0918380831282138214827E
:104830001582E9E6F4E09183808312821382148268
:104840001582EFE6F4E09183808312821382148252
:104850001582EBE7F4E09183808312821382148245
:104860001582E5E7F4E0918380831282138214823B
:104870001582E1E8F4E0918380831282138214822E
:104880001582E7E8F4E09183808312821382148218
:104890001582EDE8F4E01382128244835583668327
:1048A00077832AE531E031832083ECE9F5E09183D9
:1048B00080831282138214821582EDE8F5E0138260
:1048C000128228E731E03183208324E0248728EE18
:1048D00033E036872587A0E8B5E013969C938E9346
:1048E000129714961D921D921D921C92179719965D
:1048F0001C921E9218971B961C921E921A971C9639
:104900001C921C971196FC93EE9340E757E160E0F0
:1049100070E04483558366837783E7E5F5E0118291
:1049200010821282138214821582168217821086D8
:104930001186B387A2871586148617861686108A75
:10494000118A128A138A148A158A168A178A108E77
:10495000118E128E138E158E148E178E168E10A237
:1049600012A211A2EBE4F5E0138212828CE691E030
:104970009183808387E2848380E1818782E08287DC
:1049800013868FEF9FEF90934A0580934905089512
:10499000CF93DF93CDB7DEB7C059D1090FB6F894E6
:1049A000DEBF0FBECDBF789484B5826084BD84B570
:1049B000816084BD85B5826085BD85B5816085BD1A
:1049C00080916E00816080936E00109281008091D2
:1049D000810082608093810080918100816080935A
:1049E0008100809180008160809380008091B1007F
:1049F00084608093B1008091B00081608093B000AA
:104A000080917A00846080937A0080917A0082603D
:104A100080937A0080917A00816080937A008091FF
:104A20007A00806880937A001092C10061E083E090
:104A30000E94170361E084E00E94170361E085E0B3
:104A40000E941703E091CA03F091CB0382E08083B8
:104A5000E091C603F091C7031082E091C803F09182
:104A6000C90387E680831092D203E091CE03F091D0
:104A7000CF0386E08083E091CC03F091CD03808169
:104A800080618083E091CC03F091CD0380818860C8
:104A90008083E091CC03F091CD0380818068808396
:104AA000E091CC03F091CD0380818F7D80838FEFE7
:104AB00090E00E949B028FEF90E00E949B028FEF9C
:104AC00090E00E949B028EEF80937A059DEE90937A
:104AD0007B052AEB20937C0580937D0580937E05E2
:104AE00090937F05A4E2B2E0E1E0F0E09F012F5F48
:104AF0003F4F4D91E95AFA4F83A1842783A3F901CF
:104B00002630310514F0E1E0F0E022E0A434B207F1
:104B100069F78091880381112AC010927003109266
:104B20006F0388EE93E0A0E0B0E080937103909370
:104B30007203A0937303B09374038EE191E090939A
:104B40006E0380936D038AEA91E090937C038093D7
:104B50007B0310927D0310927E0310927F031092CC
:104B6000800384E08093850381E0809388038AE258
:104B700093E0909329038093280380912703811168
:104B8000ADC060E372E080E090E00E94EA03DFB62F
:104B9000F8940AE112E0EEE2EE2EE2E0FE2E8091C1
:104BA0002503811125C0F8018491F7019491E82F24
:104BB000F0E0EE0FFF1FE450FE4FA591B4918C91F1
:104BC000982321F461E08AE00E94E90261E08AE032
:104BD0000E9417038CB580618CBD8CB580648CBD40
:104BE00061E08DE00E94170361E08BE00E941703F3
:104BF000809125038F5F80932503DFBEF801049128
:104C0000E02FF0E0EE0FFF1FEE50FE4F85919491E4
:104C10009093240380932303F701E490E09222030E
:104C200061E08AE00E9417030E940D0580E591E093
:104C30000E94930184E38093B90380E80E94D90520
:104C40000E949A0C882309F40AC288E00E94D905C0
:104C50000E94870C883009F002C280E10E94D905C9
:104C60000E94870C803109F0FAC180E00E94D905CA
:104C70000E94870C182F8111F2C141E050E0BE0163
:104C80006F5F7F4F8FE190E00E94120B898183302C
:104C900009F0E5C180E48093260342E06EE170E014
:104CA000812F0E94350642E06FE170E0812F0E9463
:104CB00035061F5F143089F740E06EE170E0812F08
:104CC0000E94350640E06FE170E0812F0E943506BA
:104CD0001F5F183089F781E08093270380E591E01A
:104CE0000E94930146E050E06AE775E089E090E0B9
:104CF0000E9429058AEA91E09A8389831B821C829B
:104D00001D821E8244E050E0BE016D5F7F4F8FE048
:104D100090E00E9429050091280310912903D801F1
:104D200092961D921D921D921C929597F80116A2C3
:104D300017A210A611A69A961D921D921D921C9262
:104D40009D9780E69AEEA0E0B0E086AB97ABA0AF6F
:104D5000B1AF80EA9FE0A0E0B0E082AF93AFA4AF34
:104D6000B5AFD801189686E0FD01282F11922A953B
:104D7000E9F79801225F3F4F94E1F90111929A956A
:104D8000E9F7EAE7F5E001900D928A95E1F72C5CEE
:104D90003F4FC757DF4F39832883C958D040D901C7
:104DA0001C920E94032E2FEC37E040E050E00E945E
:104DB0005632DC01CB010196A11DB11DF80184839F
:104DC0009583A683B78380839183A283B38358019D
:104DD000F3E4AF0EB11CC5010E94E20B64E470E085
:104DE000C5010E944B0F882309F4AAC10E941D042B
:104DF0002B013C0148EEC42E43E0D42EE12CF12CD3
:104E000052E0252E912C812CC757DF4FA881B98104
:104E1000C958D0408C918330E1F181119BC1F801D8
:104E200084819581A681B7810196A11DB11D8483DE
:104E30009583A683B7830E941D04641975098609AA
:104E40009709A70196010E94BF32A90161E0C8013C
:104E50000E94BA1881E0C757DF4FA881B981C958AD
:104E6000D0408C93F1E08F16910471F20E941D04E2
:104E70006419750986099709D801D6962D913D9137
:104E80004D915C91D997261737074807590708F0C5
:104E9000B9CFC5010E94E20BF80184819581A681FA
:104EA000B7810196A11DB11D84839583A683B78325
:104EB0000E941D04F801FE966083718382839383B0
:104EC0008A94892809F03CC180E591E00E94930111
:104ED0000091280310912903B801625F7F4F9E0162
:104EE0002F5F3F4F5901C9010E94F01244E050E08A
:104EF000BE016D5F7F4F8FE090E00E942905B801F1
:104F00006A5E7F4FC5010E94F01244E050E0BE018E
:104F10006D5F7F4F81E090E00E942905B8016E5ED1
:104F20007F4FC5010E94F01244E050E0BE016D5F6A
:104F30007F4F85E090E00E942905B801625E7F4FB7
:104F4000C5010E94F0128B819C81AD81BE8180934E
:104F5000770490937804A0937904B0937A040E9424
:104F6000C5037F7380910001909101016827792723
:104F7000709301016093000168EE73E080E090E0BF
:104F80000E94EA038AEA91E09A8389831B821C8249
:104F90001D821E8280E591E00E94930144E050E072
:104FA000BE016D5F7F4F8FE090E00E94120B84E2A4
:104FB00092E090936405809363050E941D04DC01D8
:104FC000CB0188589341A109B10980936B05909357
:104FD0006C05A0936D05B0936E0580936705909363
:104FE0006805A0936905B0936A0580936F05909357
:104FF0007005A0937105B0937205E0916105F09181
:10500000620585E492E09187808780E590E0938750
:10501000828780916105909162050E942C0910920F
:105020007905109278050E941D046B017C01809126
:10503000780590917905019709F46BC10E941D04D0
:105040006C197D098E099F096035764481059105AB
:1050500008F05FC187E595E00E94251AE8CF87E355
:105060008093B90380E80E94D9050E949A0C882396
:1050700029F188E00E94D9050E94870C8830F1F45C
:1050800080E10E94D9050E94870C182F8031B1F46D
:1050900080E00E94D9050E94870C81110FC041E079
:1050A00050E0BE016F5F7F4F89E390E00E94120BDA
:1050B0008981843019F4109326030DCE83E3809305
:1050C000B90380E80E94D9050E949A0C8823B1F1A7
:1050D00080E10E94D9050E94870C803179F582E138
:1050E0000E94D9050E94870C823141F580E00E9420
:1050F000D9050E94870C811121C084E0809326038A
:1051000015E5C857DF4F1883C858D04041E050E03C
:10511000BE0168577F4F8BE190E00E942905C95777
:10512000DF4F1883C758D04041E050E0BE016957B7
:105130007F4F8AE190E00E942905CDCD1092B903FE
:1051400060E177E280E090E00E94EA03F0E0E0E0D6
:105150000995FFCF843019F5F80184819581A681E6
:10516000B7810196A11DB11D84839583A683B78362
:105170000E941D046419750986099709A701960103
:105180000E94BF32A90163E0C8010E94BA18C75744
:10519000DF4FA881B981C958D0402C9263CE8130AD
:1051A00079F5F80142AD53AD64AD75AD9E012F5F49
:1051B0003F4FC8010E941B17382EF2E08F139EC08C
:1051C00089819A81AB81BC81F80184839583A68310
:1051D000B7830E941D046419750986099709A70100
:1051E00096010E94BF32A90163E0C8010E94BA186B
:1051F000C757DF4FA881B981C958D0403C9232CE01
:10520000823009F02FCEF80142AD53AD64AD75ADDB
:105210009E012F5F3F4FC8010E941B17382EF5E0FB
:105220008F1361C0E3E0C757DF4FA881B981C95828
:10523000D040EC93F80182A193A1A4A1B5A1892B40
:105240008A2B8B2B41F424E833E040E050E022A38A
:1052500033A344A355A3F80186A197A1A0A5B1A5A6
:10526000892B8A2B8B2B61F482A193A1A4A1B5A1D8
:10527000B695A7959795879586A397A3A0A7B1A75D
:10528000F80182A593A5A4A5B5A5892B8A2B8B2B04
:10529000A9F482A193A1A4A1B5A1AC01BD0123E011
:1052A00076956795579547952A95D1F7841B950B69
:1052B000A60BB70B82A793A7A4A7B5A7F80186A151
:1052C00097A1A0A5B1A586A797A7A0ABB1AB82A5D2
:1052D00093A5A4A5B5A582AB93ABA4ABB5AB88242D
:1052E0008394912CBFCDF6E08F1308C0C757DF4FD2
:1052F000A881B981C958D0401C92B4CDBFEF3B12F0
:10530000B1CDC757DF4FE881F981C958D04010822D
:10531000A9CD8091780590917905019709F079CE12
:105320001092970310929603109295031092940393
:105330000E9407078CEA91E0909393038093920375
:105340008DEA91E090939103809390031092500521
:1053500080915505823018F098E090935005809325
:10536000530562E370E080E090E00E94EA03609100
:1053700056058BE495E00E94CB0768EE73E080E071
:1053800090E00E94EA0360E38BE495E00E94FD094F
:105390000BE416E4C8010197F1F760E38BE495E0B4
:1053A0000E94FD09C8010197F1F760E38BE495E0E5
:1053B0000E94FD0983E592E00197F1F760E28BE43A
:1053C00095E00E94FD0960915005606240E08BE429
:1053D00095E00E94160A84E08093510540E06CE05D
:1053E0008BE495E00E94160A40E061E08BE495E0D2
:1053F0000E94160A0BE31FE1C8010197F1F782E052
:105400008093520540E066E08BE495E00E94160A26
:1054100040E062E08BE495E00E94160AC801019723
:10542000F1F788E08093560560E08BE495E00E94F8
:10543000CB0740E061E08BE495E00E94160AC801CA
:105440000197F1F740E062E08BE495E00E94160AD4
:10545000C8010197F1F760E080E00E942D0A61E544
:1054600072E08BE495E00E9458098CE491E29A8303
:105470008983C5010E94290484E591E29A83898386
:10548000C5010E94290422242394312C88248A9463
:10549000912C87E595E00E94251A0E941D04C357B0
:1054A000DF4F688379838A839B83CD58D04039E965
:1054B000E32E34E0F32E8701D80155961C921E92FC
:1054C000549714968D919C911597892B31F41696CB
:1054D0008D919C91892B09F451C0D8012D913D915A
:1054E0004D915C911397C757DF4F288339834A83C7
:1054F0005B83C958D040C357DF4F688179818A8167
:105500009B81CD58D040621B730B840B950B1B966F
:105510004D905D906D907C901E9764157505860585
:10552000970560F1411451046104710409F432C11A
:10553000A30192010E94BF32C301B2010E9408344C
:10554000C757DF4F288139814A815B81C958D040D4
:10555000620F731F841F951FD8016D937D938D93E8
:105560009C931397F8018389882341F0278530891C
:105570002115310509F01CC1358A248A0A5E1F4FA6
:10558000F5E009341F0709F097CF10E000E0D701DC
:1055900054968D919C915597892BE9F11A968C918F
:1055A0001A97882309F41BC11696ED91FC91179761
:1055B00018968D919C910995F70184899589029798
:1055C00051F58091490590914A05892B21F18481FB
:1055D0009581892B21F486819781892BE1F026E141
:1055E000209FF001219FF00D1124E756FB4FDF01B2
:1055F0001D922A95E9F70E941D04F70160837183CB
:10560000828393838091490590914A0501979093F5
:105610004A05809349050F5F1F4FF6E1EF0EF11C1D
:105620000830110509F0B3CF8FE00E94B0039695C2
:10563000879596958795B401681B790B83E00E9446
:10564000530364E670E080E090E00E94EA030E9469
:10565000B6086093990370939A0380939B03909389
:105660009C030E94B60820E030E04CE052E40E9427
:10567000FE3318160CF04DC080919803882309F46E
:1056800048C01092980360E084E00E94E902CF577E
:10569000DF4FB982A882C158D040CD57DF4F198261
:1056A0001882C358D04020E830E0CB57DF4F398311
:1056B0002883C558D04061E272E0CE018F579F4FDA
:1056C0000E94F31670E060E0CE018F579F4F0E945A
:1056D000001A70E060E0CE018F579F4F0E94001AC1
:1056E000CD57DF4F08811981C358D04001501109AF
:1056F000CF57DF4F28813981C158D040D12CC12CE0
:10570000F12CE12C50E040E064E187E595E00E9457
:105710009D1E61E080E00E942D0AC0909903D09008
:105720009A03E0909B03F0909C03A7019601C701A8
:10573000B6010E94033465E572E081111AC02601AA
:105740003701E89477F82FEF3FEF4FE75FE7C301AA
:10575000B2010E940334811147C02FEF3FEF4FE7A2
:105760005FE7C301B2010E9432311816ECF569E51A
:1057700072E08BE495E00E94580940E050E0452B30
:1057800009F487CE0E941802882309F482CE0E9471
:1057900000007FCEC357DF4F288139814A815B816A
:1057A000CD58D0402D933D934D935C931397DACE13
:1057B000D801818992898217930708F0DFCE358A54
:1057C000248A0196928B818B8217930708F4D6CE98
:1057D000E2E0F0E05596FC93EE935497CFCE14960A
:1057E000ED91FC910995E8CE2FEF3FEF4FE75FE495
:1057F000C701B6010E94FE3318161CF46DE572E075
:10580000B8CF2FEF3FEF4FE75FECC701B6010E9423
:10581000323187FDF3CF20E030E0A901C701B601A6
:105820000E94323187FF0AC041E06DE28BE495E0CF
:105830000E94160AF7FAF094F7F8F0942AE037ED90
:1058400043EA5BE3C701B6010E94F1322B013C0140
:105850000E94CF336B017C010E9437319B01AC0168
:10586000C301B2010E94F0322B013C012AE0B701D2
:10587000A6018BE495E00E94670941E06EE28BE4AB
:1058800095E00E94160A20E030E040E251E4C301B6
:10589000B2010E9498312B013C010E94CF336B0171
:1058A000F12CE12C2AE0B701A6018BE495E00E94DF
:1058B0006709C701B6010E9437319B01AC01C301E2
:1058C000B2010E94F03220E030E040E251E40E9458
:1058D00098310E94CF33AB0170E060E02AE08BE4A6
:1058E00095E00E94670949CFEF920F931F93CF93E2
:1058F000DF93E80134E047FD34E1042E000C550B42
:1059000057FF03C0519541955109E32E022F242FD3
:10591000AE010E94EB2ECE01DF91CF911F910F912E
:10592000EF9008950F931F93CF93DF9382309105EB
:1059300010F482E090E0E091A405F091A50530E03C
:1059400020E0B0E0A0E0309799F42115310509F48A
:105950004AC0281B390B24303105D8F58A819B8138
:105960006115710589F1FB0193838283FE0111C0EA
:10597000408151810281138148175907E0F048178F
:10598000590799F4109761F012960C931297139699
:105990001C933296CF01DF91CF911F910F91089503
:1059A0000093A4051093A505F4CF2115310551F0FE
:1059B0004217530738F0A901DB019A01BD01DF014D
:1059C000F801C1CFEF01F9CF9093A5058093A4050D
:1059D000CDCFFE01E20FF31F819391932250310945
:1059E00039832883D7CF2091A2053091A305232B9B
:1059F00041F420910401309105013093A3052093D7
:105A0000A20520910201309103012115310541F4D5
:105A10002DB73EB74091060150910701241B350B6D
:105A2000E091A205F091A305E217F307A0F42E1B65
:105A30003F0B2817390778F0AC014E5F5F4F2417F2
:105A4000350748F04E0F5F1F5093A3054093A20502
:105A5000819391939FCFF0E0E0E09CCFCF93DF93D1
:105A60000097E9F0FC01329713821282A091A405FD
:105A7000B091A505ED0130E020E01097A1F4208160
:105A80003181820F931F2091A2053091A305281721
:105A9000390709F061C0F093A305E093A205DF91F7
:105AA000CF910895EA01CE17DF07E8F54A815B81BF
:105AB0009E0141155105B1F7E901FB83EA83499144
:105AC0005991C40FD51FEC17FD0761F480819181B6
:105AD0000296840F951FE9019983888382819381BF
